{
  "contractName": "RoboPunksNFT",
  "abi": [
    {
      "inputs": [],
      "stateMutability": "payable",
      "type": "constructor",
      "payable": true
    },
    {
      "anonymous": false,
      "inputs": [
        {
          "indexed": true,
          "internalType": "address",
          "name": "owner",
          "type": "address"
        },
        {
          "indexed": true,
          "internalType": "address",
          "name": "approved",
          "type": "address"
        },
        {
          "indexed": true,
          "internalType": "uint256",
          "name": "tokenId",
          "type": "uint256"
        }
      ],
      "name": "Approval",
      "type": "event"
    },
    {
      "anonymous": false,
      "inputs": [
        {
          "indexed": true,
          "internalType": "address",
          "name": "owner",
          "type": "address"
        },
        {
          "indexed": true,
          "internalType": "address",
          "name": "operator",
          "type": "address"
        },
        {
          "indexed": false,
          "internalType": "bool",
          "name": "approved",
          "type": "bool"
        }
      ],
      "name": "ApprovalForAll",
      "type": "event"
    },
    {
      "anonymous": false,
      "inputs": [
        {
          "indexed": true,
          "internalType": "address",
          "name": "previousOwner",
          "type": "address"
        },
        {
          "indexed": true,
          "internalType": "address",
          "name": "newOwner",
          "type": "address"
        }
      ],
      "name": "OwnershipTransferred",
      "type": "event"
    },
    {
      "anonymous": false,
      "inputs": [
        {
          "indexed": true,
          "internalType": "address",
          "name": "from",
          "type": "address"
        },
        {
          "indexed": true,
          "internalType": "address",
          "name": "to",
          "type": "address"
        },
        {
          "indexed": true,
          "internalType": "uint256",
          "name": "tokenId",
          "type": "uint256"
        }
      ],
      "name": "Transfer",
      "type": "event"
    },
    {
      "inputs": [],
      "name": "WithdrawWallet",
      "outputs": [
        {
          "internalType": "address payable",
          "name": "",
          "type": "address"
        }
      ],
      "stateMutability": "view",
      "type": "function",
      "constant": true
    },
    {
      "inputs": [
        {
          "internalType": "address",
          "name": "to",
          "type": "address"
        },
        {
          "internalType": "uint256",
          "name": "tokenId",
          "type": "uint256"
        }
      ],
      "name": "approve",
      "outputs": [],
      "stateMutability": "nonpayable",
      "type": "function"
    },
    {
      "inputs": [
        {
          "internalType": "address",
          "name": "owner",
          "type": "address"
        }
      ],
      "name": "balanceOf",
      "outputs": [
        {
          "internalType": "uint256",
          "name": "",
          "type": "uint256"
        }
      ],
      "stateMutability": "view",
      "type": "function",
      "constant": true
    },
    {
      "inputs": [
        {
          "internalType": "uint256",
          "name": "tokenId",
          "type": "uint256"
        }
      ],
      "name": "getApproved",
      "outputs": [
        {
          "internalType": "address",
          "name": "",
          "type": "address"
        }
      ],
      "stateMutability": "view",
      "type": "function",
      "constant": true
    },
    {
      "inputs": [
        {
          "internalType": "address",
          "name": "owner",
          "type": "address"
        },
        {
          "internalType": "address",
          "name": "operator",
          "type": "address"
        }
      ],
      "name": "isApprovedForAll",
      "outputs": [
        {
          "internalType": "bool",
          "name": "",
          "type": "bool"
        }
      ],
      "stateMutability": "view",
      "type": "function",
      "constant": true
    },
    {
      "inputs": [],
      "name": "isPublicMintEnabled",
      "outputs": [
        {
          "internalType": "bool",
          "name": "",
          "type": "bool"
        }
      ],
      "stateMutability": "view",
      "type": "function",
      "constant": true
    },
    {
      "inputs": [],
      "name": "maxPreWallet",
      "outputs": [
        {
          "internalType": "uint256",
          "name": "",
          "type": "uint256"
        }
      ],
      "stateMutability": "view",
      "type": "function",
      "constant": true
    },
    {
      "inputs": [],
      "name": "maxSupply",
      "outputs": [
        {
          "internalType": "uint256",
          "name": "",
          "type": "uint256"
        }
      ],
      "stateMutability": "view",
      "type": "function",
      "constant": true
    },
    {
      "inputs": [],
      "name": "mintPrice",
      "outputs": [
        {
          "internalType": "uint256",
          "name": "",
          "type": "uint256"
        }
      ],
      "stateMutability": "view",
      "type": "function",
      "constant": true
    },
    {
      "inputs": [],
      "name": "name",
      "outputs": [
        {
          "internalType": "string",
          "name": "",
          "type": "string"
        }
      ],
      "stateMutability": "view",
      "type": "function",
      "constant": true
    },
    {
      "inputs": [],
      "name": "owner",
      "outputs": [
        {
          "internalType": "address",
          "name": "",
          "type": "address"
        }
      ],
      "stateMutability": "view",
      "type": "function",
      "constant": true
    },
    {
      "inputs": [
        {
          "internalType": "uint256",
          "name": "tokenId",
          "type": "uint256"
        }
      ],
      "name": "ownerOf",
      "outputs": [
        {
          "internalType": "address",
          "name": "",
          "type": "address"
        }
      ],
      "stateMutability": "view",
      "type": "function",
      "constant": true
    },
    {
      "inputs": [],
      "name": "renounceOwnership",
      "outputs": [],
      "stateMutability": "nonpayable",
      "type": "function"
    },
    {
      "inputs": [
        {
          "internalType": "address",
          "name": "from",
          "type": "address"
        },
        {
          "internalType": "address",
          "name": "to",
          "type": "address"
        },
        {
          "internalType": "uint256",
          "name": "tokenId",
          "type": "uint256"
        }
      ],
      "name": "safeTransferFrom",
      "outputs": [],
      "stateMutability": "nonpayable",
      "type": "function"
    },
    {
      "inputs": [
        {
          "internalType": "address",
          "name": "from",
          "type": "address"
        },
        {
          "internalType": "address",
          "name": "to",
          "type": "address"
        },
        {
          "internalType": "uint256",
          "name": "tokenId",
          "type": "uint256"
        },
        {
          "internalType": "bytes",
          "name": "data",
          "type": "bytes"
        }
      ],
      "name": "safeTransferFrom",
      "outputs": [],
      "stateMutability": "nonpayable",
      "type": "function"
    },
    {
      "inputs": [
        {
          "internalType": "address",
          "name": "operator",
          "type": "address"
        },
        {
          "internalType": "bool",
          "name": "approved",
          "type": "bool"
        }
      ],
      "name": "setApprovalForAll",
      "outputs": [],
      "stateMutability": "nonpayable",
      "type": "function"
    },
    {
      "inputs": [
        {
          "internalType": "bytes4",
          "name": "interfaceId",
          "type": "bytes4"
        }
      ],
      "name": "supportsInterface",
      "outputs": [
        {
          "internalType": "bool",
          "name": "",
          "type": "bool"
        }
      ],
      "stateMutability": "view",
      "type": "function",
      "constant": true
    },
    {
      "inputs": [],
      "name": "symbol",
      "outputs": [
        {
          "internalType": "string",
          "name": "",
          "type": "string"
        }
      ],
      "stateMutability": "view",
      "type": "function",
      "constant": true
    },
    {
      "inputs": [],
      "name": "totalSupply",
      "outputs": [
        {
          "internalType": "uint256",
          "name": "",
          "type": "uint256"
        }
      ],
      "stateMutability": "view",
      "type": "function",
      "constant": true
    },
    {
      "inputs": [
        {
          "internalType": "address",
          "name": "from",
          "type": "address"
        },
        {
          "internalType": "address",
          "name": "to",
          "type": "address"
        },
        {
          "internalType": "uint256",
          "name": "tokenId",
          "type": "uint256"
        }
      ],
      "name": "transferFrom",
      "outputs": [],
      "stateMutability": "nonpayable",
      "type": "function"
    },
    {
      "inputs": [
        {
          "internalType": "address",
          "name": "newOwner",
          "type": "address"
        }
      ],
      "name": "transferOwnership",
      "outputs": [],
      "stateMutability": "nonpayable",
      "type": "function"
    },
    {
      "inputs": [
        {
          "internalType": "address",
          "name": "",
          "type": "address"
        }
      ],
      "name": "walletMints",
      "outputs": [
        {
          "internalType": "uint256",
          "name": "",
          "type": "uint256"
        }
      ],
      "stateMutability": "view",
      "type": "function",
      "constant": true
    },
    {
      "inputs": [
        {
          "internalType": "bool",
          "name": "_isPublicMintEnabled",
          "type": "bool"
        }
      ],
      "name": "setIsPublicMintEnabled",
      "outputs": [],
      "stateMutability": "nonpayable",
      "type": "function"
    },
    {
      "inputs": [
        {
          "internalType": "string",
          "name": "_baseTokenUri",
          "type": "string"
        }
      ],
      "name": "setBaseTokenUri",
      "outputs": [
        {
          "internalType": "bool",
          "name": "",
          "type": "bool"
        }
      ],
      "stateMutability": "nonpayable",
      "type": "function"
    },
    {
      "inputs": [
        {
          "internalType": "uint256",
          "name": "_tokenId",
          "type": "uint256"
        }
      ],
      "name": "tokenURI",
      "outputs": [
        {
          "internalType": "string",
          "name": "",
          "type": "string"
        }
      ],
      "stateMutability": "view",
      "type": "function",
      "constant": true
    },
    {
      "inputs": [],
      "name": "withdraw",
      "outputs": [],
      "stateMutability": "nonpayable",
      "type": "function"
    },
    {
      "inputs": [
        {
          "internalType": "uint256",
          "name": "_quantity",
          "type": "uint256"
        }
      ],
      "name": "mint",
      "outputs": [],
      "stateMutability": "payable",
      "type": "function",
      "payable": true
    }
  ],
  "bytecode": "0x60806040526040518060400160405280600981526020017f526f626f50756e6b7300000000000000000000000000000000000000000000008152506040518060400160405280600281526020017f525000000000000000000000000000000000000000000000000000000000000081525081600090816200008191906200042a565b5080600190816200009391906200042a565b505050620000b6620000aa620000e260201b60201c565b620000ea60201b60201c565b662386f26fc1000060078190555060006008819055506103e8600981905550600a808190555062000511565b600033905090565b6000600660009054906101000a900473ffffffffffffffffffffffffffffffffffffffff16905081600660006101000a81548173ffffffffffffffffffffffffffffffffffffffff021916908373ffffffffffffffffffffffffffffffffffffffff1602179055508173ffffffffffffffffffffffffffffffffffffffff168173ffffffffffffffffffffffffffffffffffffffff167f8be0079c531659141344cd1fd0a4f28419497f9722a3daafe3b4186f6b6457e060405160405180910390a35050565b600081519050919050565b7f4e487b7100000000000000000000000000000000000000000000000000000000600052604160045260246000fd5b7f4e487b7100000000000000000000000000000000000000000000000000000000600052602260045260246000fd5b600060028204905060018216806200023257607f821691505b602082108103620002485762000247620001ea565b5b50919050565b60008190508160005260206000209050919050565b60006020601f8301049050919050565b600082821b905092915050565b600060088302620002b27fffffffffffffffffffffffffffffffffffffffffffffffffffffffffffffffff8262000273565b620002be868362000273565b95508019841693508086168417925050509392505050565b6000819050919050565b6000819050919050565b60006200030b62000305620002ff84620002d6565b620002e0565b620002d6565b9050919050565b6000819050919050565b6200032783620002ea565b6200033f620003368262000312565b84845462000280565b825550505050565b600090565b6200035662000347565b620003638184846200031c565b505050565b5b818110156200038b576200037f6000826200034c565b60018101905062000369565b5050565b601f821115620003da57620003a4816200024e565b620003af8462000263565b81016020851015620003bf578190505b620003d7620003ce8562000263565b83018262000368565b50505b505050565b600082821c905092915050565b6000620003ff60001984600802620003df565b1980831691505092915050565b60006200041a8383620003ec565b9150826002028217905092915050565b6200043582620001b0565b67ffffffffffffffff811115620004515762000450620001bb565b5b6200045d825462000219565b6200046a8282856200038f565b600060209050601f831160018114620004a257600084156200048d578287015190505b6200049985826200040c565b86555062000509565b601f198416620004b2866200024e565b60005b82811015620004dc57848901518255600182019150602085019450602081019050620004b5565b86831015620004fc5784890151620004f8601f891682620003ec565b8355505b6001600288020188555050505b505050505050565b6136f280620005216000396000f3fe60806040526004361061019c5760003560e01c8063715018a6116100ec578063b88d4fde1161008a578063d5abeb0111610064578063d5abeb01146105a7578063e985e9c5146105d2578063f0293fd31461060f578063f2fde38b1461064c5761019c565b8063b88d4fde14610516578063bb36625b1461053f578063c87b56dd1461056a5761019c565b806395652cfa116100c657806395652cfa1461046957806395d89b41146104a6578063a0712d68146104d1578063a22cb465146104ed5761019c565b8063715018a6146103fc5780637f17df04146104135780638da5cb5b1461043e5761019c565b80632373ac221161015957806342842e0e1161013357806342842e0e1461032e5780636352211e146103575780636817c76c1461039457806370a08231146103bf5761019c565b80632373ac22146102c557806323b872dd146102ee5780633ccfd60b146103175761019c565b80630116bc2d146101a157806301ffc9a7146101cc57806306fdde0314610209578063081812fc14610234578063095ea7b31461027157806318160ddd1461029a575b600080fd5b3480156101ad57600080fd5b506101b6610675565b6040516101c39190611f65565b60405180910390f35b3480156101d857600080fd5b506101f360048036038101906101ee9190611fec565b610688565b6040516102009190611f65565b60405180910390f35b34801561021557600080fd5b5061021e61076a565b60405161022b91906120b2565b60405180910390f35b34801561024057600080fd5b5061025b6004803603810190610256919061210a565b6107fc565b6040516102689190612178565b60405180910390f35b34801561027d57600080fd5b50610298600480360381019061029391906121bf565b610842565b005b3480156102a657600080fd5b506102af610959565b6040516102bc919061220e565b60405180910390f35b3480156102d157600080fd5b506102ec60048036038101906102e79190612255565b61095f565b005b3480156102fa57600080fd5b5061031560048036038101906103109190612282565b610984565b005b34801561032357600080fd5b5061032c6109e4565b005b34801561033a57600080fd5b5061035560048036038101906103509190612282565b610abd565b005b34801561036357600080fd5b5061037e6004803603810190610379919061210a565b610add565b60405161038b9190612178565b60405180910390f35b3480156103a057600080fd5b506103a9610b8e565b6040516103b6919061220e565b60405180910390f35b3480156103cb57600080fd5b506103e660048036038101906103e191906122d5565b610b94565b6040516103f3919061220e565b60405180910390f35b34801561040857600080fd5b50610411610c4b565b005b34801561041f57600080fd5b50610428610c5f565b604051610435919061220e565b60405180910390f35b34801561044a57600080fd5b50610453610c65565b6040516104609190612178565b60405180910390f35b34801561047557600080fd5b50610490600480360381019061048b9190612367565b610c8f565b60405161049d9190611f65565b60405180910390f35b3480156104b257600080fd5b506104bb610cb5565b6040516104c891906120b2565b60405180910390f35b6104eb60048036038101906104e6919061210a565b610d47565b005b3480156104f957600080fd5b50610514600480360381019061050f91906123b4565b610fac565b005b34801561052257600080fd5b5061053d60048036038101906105389190612524565b610fc2565b005b34801561054b57600080fd5b50610554611024565b60405161056191906125c8565b60405180910390f35b34801561057657600080fd5b50610591600480360381019061058c919061210a565b61104a565b60405161059e91906120b2565b60405180910390f35b3480156105b357600080fd5b506105bc6110c6565b6040516105c9919061220e565b60405180910390f35b3480156105de57600080fd5b506105f960048036038101906105f491906125e3565b6110cc565b6040516106069190611f65565b60405180910390f35b34801561061b57600080fd5b50610636600480360381019061063191906122d5565b611160565b604051610643919061220e565b60405180910390f35b34801561065857600080fd5b50610673600480360381019061066e91906122d5565b611178565b005b600b60009054906101000a900460ff1681565b60007f80ac58cd000000000000000000000000000000000000000000000000000000007bffffffffffffffffffffffffffffffffffffffffffffffffffffffff1916827bffffffffffffffffffffffffffffffffffffffffffffffffffffffff1916148061075357507f5b5e139f000000000000000000000000000000000000000000000000000000007bffffffffffffffffffffffffffffffffffffffffffffffffffffffff1916827bffffffffffffffffffffffffffffffffffffffffffffffffffffffff1916145b806107635750610762826111fb565b5b9050919050565b60606000805461077990612652565b80601f01602080910402602001604051908101604052809291908181526020018280546107a590612652565b80156107f25780601f106107c7576101008083540402835291602001916107f2565b820191906000526020600020905b8154815290600101906020018083116107d557829003601f168201915b5050505050905090565b600061080782611265565b6004600083815260200190815260200160002060009054906101000a900473ffffffffffffffffffffffffffffffffffffffff169050919050565b600061084d82610add565b90508073ffffffffffffffffffffffffffffffffffffffff168373ffffffffffffffffffffffffffffffffffffffff16036108bd576040517f08c379a00000000000000000000000000000000000000000000000000000000081526004016108b4906126f5565b60405180910390fd5b8073ffffffffffffffffffffffffffffffffffffffff166108dc6112b0565b73ffffffffffffffffffffffffffffffffffffffff16148061090b575061090a816109056112b0565b6110cc565b5b61094a576040517f08c379a000000000000000000000000000000000000000000000000000000000815260040161094190612787565b60405180910390fd5b61095483836112b8565b505050565b60085481565b610967611371565b80600b60006101000a81548160ff02191690831515021790555050565b61099561098f6112b0565b826113ef565b6109d4576040517f08c379a00000000000000000000000000000000000000000000000000000000081526004016109cb90612819565b60405180910390fd5b6109df838383611484565b505050565b6109ec611371565b6000600d60009054906101000a900473ffffffffffffffffffffffffffffffffffffffff1673ffffffffffffffffffffffffffffffffffffffff1647604051610a349061286a565b60006040518083038185875af1925050503d8060008114610a71576040519150601f19603f3d011682016040523d82523d6000602084013e610a76565b606091505b5050905080610aba576040517f08c379a0000000000000000000000000000000000000000000000000000000008152600401610ab1906128cb565b60405180910390fd5b50565b610ad883838360405180602001604052806000815250610fc2565b505050565b6000806002600084815260200190815260200160002060009054906101000a900473ffffffffffffffffffffffffffffffffffffffff169050600073ffffffffffffffffffffffffffffffffffffffff168173ffffffffffffffffffffffffffffffffffffffff1603610b85576040517f08c379a0000000000000000000000000000000000000000000000000000000008152600401610b7c90612937565b60405180910390fd5b80915050919050565b60075481565b60008073ffffffffffffffffffffffffffffffffffffffff168273ffffffffffffffffffffffffffffffffffffffff1603610c04576040517f08c379a0000000000000000000000000000000000000000000000000000000008152600401610bfb906129c9565b60405180910390fd5b600360008373ffffffffffffffffffffffffffffffffffffffff1673ffffffffffffffffffffffffffffffffffffffff168152602001908152602001600020549050919050565b610c53611371565b610c5d60006116ea565b565b600a5481565b6000600660009054906101000a900473ffffffffffffffffffffffffffffffffffffffff16905090565b6000610c99611371565b8282600c9182610caa929190612ba0565b506001905092915050565b606060018054610cc490612652565b80601f0160208091040260200160405190810160405280929190818152602001828054610cf090612652565b8015610d3d5780601f10610d1257610100808354040283529160200191610d3d565b820191906000526020600020905b815481529060010190602001808311610d2057829003601f168201915b5050505050905090565b600b60009054906101000a900460ff16610d96576040517f08c379a0000000000000000000000000000000000000000000000000000000008152600401610d8d90612cbc565b60405180910390fd5b60075481610da49190612d0b565b3414610de5576040517f08c379a0000000000000000000000000000000000000000000000000000000008152600401610ddc90612db1565b60405180910390fd5b60095481600854610df69190612dd1565b1115610e37576040517f08c379a0000000000000000000000000000000000000000000000000000000008152600401610e2e90612e73565b60405180910390fd5b600a5481600e60003373ffffffffffffffffffffffffffffffffffffffff1673ffffffffffffffffffffffffffffffffffffffff16815260200190815260200160002054610e859190612dd1565b1115610ec6576040517f08c379a0000000000000000000000000000000000000000000000000000000008152600401610ebd90612edf565b60405180910390fd5b80600e60003373ffffffffffffffffffffffffffffffffffffffff1673ffffffffffffffffffffffffffffffffffffffff16815260200190815260200160002054610f119190612dd1565b600e60003373ffffffffffffffffffffffffffffffffffffffff1673ffffffffffffffffffffffffffffffffffffffff1681526020019081526020016000208190555060005b81811015610fa85760006001600854610f709190612dd1565b905060086000815480929190610f8590612eff565b9190505550610f9433826117b0565b508080610fa090612eff565b915050610f57565b5050565b610fbe610fb76112b0565b83836117ce565b5050565b610fd3610fcd6112b0565b836113ef565b611012576040517f08c379a000000000000000000000000000000000000000000000000000000000815260040161100990612819565b60405180910390fd5b61101e8484848461193a565b50505050565b600d60009054906101000a900473ffffffffffffffffffffffffffffffffffffffff1681565b606061105582611996565b611094576040517f08c379a000000000000000000000000000000000000000000000000000000000815260040161108b90612f93565b60405180910390fd5b600c61109f83611a02565b6040516020016110b09291906130be565b6040516020818303038152906040529050919050565b60095481565b6000600560008473ffffffffffffffffffffffffffffffffffffffff1673ffffffffffffffffffffffffffffffffffffffff16815260200190815260200160002060008373ffffffffffffffffffffffffffffffffffffffff1673ffffffffffffffffffffffffffffffffffffffff16815260200190815260200160002060009054906101000a900460ff16905092915050565b600e6020528060005260406000206000915090505481565b611180611371565b600073ffffffffffffffffffffffffffffffffffffffff168173ffffffffffffffffffffffffffffffffffffffff16036111ef576040517f08c379a00000000000000000000000000000000000000000000000000000000081526004016111e69061315f565b60405180910390fd5b6111f8816116ea565b50565b60007f01ffc9a7000000000000000000000000000000000000000000000000000000007bffffffffffffffffffffffffffffffffffffffffffffffffffffffff1916827bffffffffffffffffffffffffffffffffffffffffffffffffffffffff1916149050919050565b61126e81611996565b6112ad576040517f08c379a00000000000000000000000000000000000000000000000000000000081526004016112a490612937565b60405180910390fd5b50565b600033905090565b816004600083815260200190815260200160002060006101000a81548173ffffffffffffffffffffffffffffffffffffffff021916908373ffffffffffffffffffffffffffffffffffffffff160217905550808273ffffffffffffffffffffffffffffffffffffffff1661132b83610add565b73ffffffffffffffffffffffffffffffffffffffff167f8c5be1e5ebec7d5bd14f71427d1e84f3dd0314c0f7b2291e5b200ac8c7c3b92560405160405180910390a45050565b6113796112b0565b73ffffffffffffffffffffffffffffffffffffffff16611397610c65565b73ffffffffffffffffffffffffffffffffffffffff16146113ed576040517f08c379a00000000000000000000000000000000000000000000000000000000081526004016113e4906131cb565b60405180910390fd5b565b6000806113fb83610add565b90508073ffffffffffffffffffffffffffffffffffffffff168473ffffffffffffffffffffffffffffffffffffffff16148061143d575061143c81856110cc565b5b8061147b57508373ffffffffffffffffffffffffffffffffffffffff16611463846107fc565b73ffffffffffffffffffffffffffffffffffffffff16145b91505092915050565b8273ffffffffffffffffffffffffffffffffffffffff166114a482610add565b73ffffffffffffffffffffffffffffffffffffffff16146114fa576040517f08c379a00000000000000000000000000000000000000000000000000000000081526004016114f19061325d565b60405180910390fd5b600073ffffffffffffffffffffffffffffffffffffffff168273ffffffffffffffffffffffffffffffffffffffff1603611569576040517f08c379a0000000000000000000000000000000000000000000000000000000008152600401611560906132ef565b60405180910390fd5b611574838383611b62565b61157f6000826112b8565b6001600360008573ffffffffffffffffffffffffffffffffffffffff1673ffffffffffffffffffffffffffffffffffffffff16815260200190815260200160002060008282546115cf919061330f565b925050819055506001600360008473ffffffffffffffffffffffffffffffffffffffff1673ffffffffffffffffffffffffffffffffffffffff16815260200190815260200160002060008282546116269190612dd1565b92505081905550816002600083815260200190815260200160002060006101000a81548173ffffffffffffffffffffffffffffffffffffffff021916908373ffffffffffffffffffffffffffffffffffffffff160217905550808273ffffffffffffffffffffffffffffffffffffffff168473ffffffffffffffffffffffffffffffffffffffff167fddf252ad1be2c89b69c2b068fc378daa952ba7f163c4a11628f55a4df523b3ef60405160405180910390a46116e5838383611b67565b505050565b6000600660009054906101000a900473ffffffffffffffffffffffffffffffffffffffff16905081600660006101000a81548173ffffffffffffffffffffffffffffffffffffffff021916908373ffffffffffffffffffffffffffffffffffffffff1602179055508173ffffffffffffffffffffffffffffffffffffffff168173ffffffffffffffffffffffffffffffffffffffff167f8be0079c531659141344cd1fd0a4f28419497f9722a3daafe3b4186f6b6457e060405160405180910390a35050565b6117ca828260405180602001604052806000815250611b6c565b5050565b8173ffffffffffffffffffffffffffffffffffffffff168373ffffffffffffffffffffffffffffffffffffffff160361183c576040517f08c379a00000000000000000000000000000000000000000000000000000000081526004016118339061338f565b60405180910390fd5b80600560008573ffffffffffffffffffffffffffffffffffffffff1673ffffffffffffffffffffffffffffffffffffffff16815260200190815260200160002060008473ffffffffffffffffffffffffffffffffffffffff1673ffffffffffffffffffffffffffffffffffffffff16815260200190815260200160002060006101000a81548160ff0219169083151502179055508173ffffffffffffffffffffffffffffffffffffffff168373ffffffffffffffffffffffffffffffffffffffff167f17307eab39ab6107e8899845ad3d59bd9653f200f220920489ca2b5937696c318360405161192d9190611f65565b60405180910390a3505050565b611945848484611484565b61195184848484611bc7565b611990576040517f08c379a000000000000000000000000000000000000000000000000000000000815260040161198790613421565b60405180910390fd5b50505050565b60008073ffffffffffffffffffffffffffffffffffffffff166002600084815260200190815260200160002060009054906101000a900473ffffffffffffffffffffffffffffffffffffffff1673ffffffffffffffffffffffffffffffffffffffff1614159050919050565b606060008203611a49576040518060400160405280600181526020017f30000000000000000000000000000000000000000000000000000000000000008152509050611b5d565b600082905060005b60008214611a7b578080611a6490612eff565b915050600a82611a749190613470565b9150611a51565b60008167ffffffffffffffff811115611a9757611a966123f9565b5b6040519080825280601f01601f191660200182016040528015611ac95781602001600182028036833780820191505090505b5090505b60008514611b5657600182611ae2919061330f565b9150600a85611af191906134a1565b6030611afd9190612dd1565b60f81b818381518110611b1357611b126134d2565b5b60200101907effffffffffffffffffffffffffffffffffffffffffffffffffffffffffffff1916908160001a905350600a85611b4f9190613470565b9450611acd565b8093505050505b919050565b505050565b505050565b611b768383611d4e565b611b836000848484611bc7565b611bc2576040517f08c379a0000000000000000000000000000000000000000000000000000000008152600401611bb990613421565b60405180910390fd5b505050565b6000611be88473ffffffffffffffffffffffffffffffffffffffff16611f27565b15611d41578373ffffffffffffffffffffffffffffffffffffffff1663150b7a02611c116112b0565b8786866040518563ffffffff1660e01b8152600401611c339493929190613556565b6020604051808303816000875af1925050508015611c6f57506040513d601f19601f82011682018060405250810190611c6c91906135b7565b60015b611cf1573d8060008114611c9f576040519150601f19603f3d011682016040523d82523d6000602084013e611ca4565b606091505b506000815103611ce9576040517f08c379a0000000000000000000000000000000000000000000000000000000008152600401611ce090613421565b60405180910390fd5b805181602001fd5b63150b7a0260e01b7bffffffffffffffffffffffffffffffffffffffffffffffffffffffff1916817bffffffffffffffffffffffffffffffffffffffffffffffffffffffff191614915050611d46565b600190505b949350505050565b600073ffffffffffffffffffffffffffffffffffffffff168273ffffffffffffffffffffffffffffffffffffffff1603611dbd576040517f08c379a0000000000000000000000000000000000000000000000000000000008152600401611db490613630565b60405180910390fd5b611dc681611996565b15611e06576040517f08c379a0000000000000000000000000000000000000000000000000000000008152600401611dfd9061369c565b60405180910390fd5b611e1260008383611b62565b6001600360008473ffffffffffffffffffffffffffffffffffffffff1673ffffffffffffffffffffffffffffffffffffffff1681526020019081526020016000206000828254611e629190612dd1565b92505081905550816002600083815260200190815260200160002060006101000a81548173ffffffffffffffffffffffffffffffffffffffff021916908373ffffffffffffffffffffffffffffffffffffffff160217905550808273ffffffffffffffffffffffffffffffffffffffff16600073ffffffffffffffffffffffffffffffffffffffff167fddf252ad1be2c89b69c2b068fc378daa952ba7f163c4a11628f55a4df523b3ef60405160405180910390a4611f2360008383611b67565b5050565b6000808273ffffffffffffffffffffffffffffffffffffffff163b119050919050565b60008115159050919050565b611f5f81611f4a565b82525050565b6000602082019050611f7a6000830184611f56565b92915050565b6000604051905090565b600080fd5b600080fd5b60007fffffffff0000000000000000000000000000000000000000000000000000000082169050919050565b611fc981611f94565b8114611fd457600080fd5b50565b600081359050611fe681611fc0565b92915050565b60006020828403121561200257612001611f8a565b5b600061201084828501611fd7565b91505092915050565b600081519050919050565b600082825260208201905092915050565b60005b83811015612053578082015181840152602081019050612038565b83811115612062576000848401525b50505050565b6000601f19601f8301169050919050565b600061208482612019565b61208e8185612024565b935061209e818560208601612035565b6120a781612068565b840191505092915050565b600060208201905081810360008301526120cc8184612079565b905092915050565b6000819050919050565b6120e7816120d4565b81146120f257600080fd5b50565b600081359050612104816120de565b92915050565b6000602082840312156121205761211f611f8a565b5b600061212e848285016120f5565b91505092915050565b600073ffffffffffffffffffffffffffffffffffffffff82169050919050565b600061216282612137565b9050919050565b61217281612157565b82525050565b600060208201905061218d6000830184612169565b92915050565b61219c81612157565b81146121a757600080fd5b50565b6000813590506121b981612193565b92915050565b600080604083850312156121d6576121d5611f8a565b5b60006121e4858286016121aa565b92505060206121f5858286016120f5565b9150509250929050565b612208816120d4565b82525050565b600060208201905061222360008301846121ff565b92915050565b61223281611f4a565b811461223d57600080fd5b50565b60008135905061224f81612229565b92915050565b60006020828403121561226b5761226a611f8a565b5b600061227984828501612240565b91505092915050565b60008060006060848603121561229b5761229a611f8a565b5b60006122a9868287016121aa565b93505060206122ba868287016121aa565b92505060406122cb868287016120f5565b9150509250925092565b6000602082840312156122eb576122ea611f8a565b5b60006122f9848285016121aa565b91505092915050565b600080fd5b600080fd5b600080fd5b60008083601f84011261232757612326612302565b5b8235905067ffffffffffffffff81111561234457612343612307565b5b6020830191508360018202830111156123605761235f61230c565b5b9250929050565b6000806020838503121561237e5761237d611f8a565b5b600083013567ffffffffffffffff81111561239c5761239b611f8f565b5b6123a885828601612311565b92509250509250929050565b600080604083850312156123cb576123ca611f8a565b5b60006123d9858286016121aa565b92505060206123ea85828601612240565b9150509250929050565b600080fd5b7f4e487b7100000000000000000000000000000000000000000000000000000000600052604160045260246000fd5b61243182612068565b810181811067ffffffffffffffff821117156124505761244f6123f9565b5b80604052505050565b6000612463611f80565b905061246f8282612428565b919050565b600067ffffffffffffffff82111561248f5761248e6123f9565b5b61249882612068565b9050602081019050919050565b82818337600083830152505050565b60006124c76124c284612474565b612459565b9050828152602081018484840111156124e3576124e26123f4565b5b6124ee8482856124a5565b509392505050565b600082601f83011261250b5761250a612302565b5b813561251b8482602086016124b4565b91505092915050565b6000806000806080858703121561253e5761253d611f8a565b5b600061254c878288016121aa565b945050602061255d878288016121aa565b935050604061256e878288016120f5565b925050606085013567ffffffffffffffff81111561258f5761258e611f8f565b5b61259b878288016124f6565b91505092959194509250565b60006125b282612137565b9050919050565b6125c2816125a7565b82525050565b60006020820190506125dd60008301846125b9565b92915050565b600080604083850312156125fa576125f9611f8a565b5b6000612608858286016121aa565b9250506020612619858286016121aa565b9150509250929050565b7f4e487b7100000000000000000000000000000000000000000000000000000000600052602260045260246000fd5b6000600282049050600182168061266a57607f821691505b60208210810361267d5761267c612623565b5b50919050565b7f4552433732313a20617070726f76616c20746f2063757272656e74206f776e6560008201527f7200000000000000000000000000000000000000000000000000000000000000602082015250565b60006126df602183612024565b91506126ea82612683565b604082019050919050565b6000602082019050818103600083015261270e816126d2565b9050919050565b7f4552433732313a20617070726f76652063616c6c6572206973206e6f7420746f60008201527f6b656e206f776e6572206e6f7220617070726f76656420666f7220616c6c0000602082015250565b6000612771603e83612024565b915061277c82612715565b604082019050919050565b600060208201905081810360008301526127a081612764565b9050919050565b7f4552433732313a2063616c6c6572206973206e6f7420746f6b656e206f776e6560008201527f72206e6f7220617070726f766564000000000000000000000000000000000000602082015250565b6000612803602e83612024565b915061280e826127a7565b604082019050919050565b60006020820190508181036000830152612832816127f6565b9050919050565b600081905092915050565b50565b6000612854600083612839565b915061285f82612844565b600082019050919050565b600061287582612847565b9150819050919050565b7f7769746864726177206661696c65640000000000000000000000000000000000600082015250565b60006128b5600f83612024565b91506128c08261287f565b602082019050919050565b600060208201905081810360008301526128e4816128a8565b9050919050565b7f4552433732313a20696e76616c696420746f6b656e2049440000000000000000600082015250565b6000612921601883612024565b915061292c826128eb565b602082019050919050565b6000602082019050818103600083015261295081612914565b9050919050565b7f4552433732313a2061646472657373207a65726f206973206e6f74206120766160008201527f6c6964206f776e65720000000000000000000000000000000000000000000000602082015250565b60006129b3602983612024565b91506129be82612957565b604082019050919050565b600060208201905081810360008301526129e2816129a6565b9050919050565b600082905092915050565b60008190508160005260206000209050919050565b60006020601f8301049050919050565b600082821b905092915050565b600060088302612a567fffffffffffffffffffffffffffffffffffffffffffffffffffffffffffffffff82612a19565b612a608683612a19565b95508019841693508086168417925050509392505050565b6000819050919050565b6000612a9d612a98612a93846120d4565b612a78565b6120d4565b9050919050565b6000819050919050565b612ab783612a82565b612acb612ac382612aa4565b848454612a26565b825550505050565b600090565b612ae0612ad3565b612aeb818484612aae565b505050565b5b81811015612b0f57612b04600082612ad8565b600181019050612af1565b5050565b601f821115612b5457612b25816129f4565b612b2e84612a09565b81016020851015612b3d578190505b612b51612b4985612a09565b830182612af0565b50505b505050565b600082821c905092915050565b6000612b7760001984600802612b59565b1980831691505092915050565b6000612b908383612b66565b9150826002028217905092915050565b612baa83836129e9565b67ffffffffffffffff811115612bc357612bc26123f9565b5b612bcd8254612652565b612bd8828285612b13565b6000601f831160018114612c075760008415612bf5578287013590505b612bff8582612b84565b865550612c67565b601f198416612c15866129f4565b60005b82811015612c3d57848901358255600182019150602085019450602081019050612c18565b86831015612c5a5784890135612c56601f891682612b66565b8355505b6001600288020188555050505b50505050505050565b7f6d696e74696e67206e6f7420656e61626c656400000000000000000000000000600082015250565b6000612ca6601383612024565b9150612cb182612c70565b602082019050919050565b60006020820190508181036000830152612cd581612c99565b9050919050565b7f4e487b7100000000000000000000000000000000000000000000000000000000600052601160045260246000fd5b6000612d16826120d4565b9150612d21836120d4565b9250817fffffffffffffffffffffffffffffffffffffffffffffffffffffffffffffffff0483118215151615612d5a57612d59612cdc565b5b828202905092915050565b7f77726f6e67206d696e742076616c756500000000000000000000000000000000600082015250565b6000612d9b601083612024565b9150612da682612d65565b602082019050919050565b60006020820190508181036000830152612dca81612d8e565b9050919050565b6000612ddc826120d4565b9150612de7836120d4565b9250827fffffffffffffffffffffffffffffffffffffffffffffffffffffffffffffffff03821115612e1c57612e1b612cdc565b5b828201905092915050565b7f736f6c64206f7574000000000000000000000000000000000000000000000000600082015250565b6000612e5d600883612024565b9150612e6882612e27565b602082019050919050565b60006020820190508181036000830152612e8c81612e50565b9050919050565b7f657863656564206d61782077616c6c6574000000000000000000000000000000600082015250565b6000612ec9601183612024565b9150612ed482612e93565b602082019050919050565b60006020820190508181036000830152612ef881612ebc565b9050919050565b6000612f0a826120d4565b91507fffffffffffffffffffffffffffffffffffffffffffffffffffffffffffffffff8203612f3c57612f3b612cdc565b5b600182019050919050565b7f546f6b656e20646f7365206e6f74206578697374210000000000000000000000600082015250565b6000612f7d601583612024565b9150612f8882612f47565b602082019050919050565b60006020820190508181036000830152612fac81612f70565b9050919050565b600081905092915050565b60008154612fcb81612652565b612fd58186612fb3565b94506001821660008114612ff0576001811461300557613038565b60ff1983168652811515820286019350613038565b61300e856129f4565b60005b8381101561303057815481890152600182019150602081019050613011565b838801955050505b50505092915050565b600061304c82612019565b6130568185612fb3565b9350613066818560208601612035565b80840191505092915050565b7f2e6a736f6e000000000000000000000000000000000000000000000000000000600082015250565b60006130a8600583612fb3565b91506130b382613072565b600582019050919050565b60006130ca8285612fbe565b91506130d68284613041565b91506130e18261309b565b91508190509392505050565b7f4f776e61626c653a206e6577206f776e657220697320746865207a65726f206160008201527f6464726573730000000000000000000000000000000000000000000000000000602082015250565b6000613149602683612024565b9150613154826130ed565b604082019050919050565b600060208201905081810360008301526131788161313c565b9050919050565b7f4f776e61626c653a2063616c6c6572206973206e6f7420746865206f776e6572600082015250565b60006131b5602083612024565b91506131c08261317f565b602082019050919050565b600060208201905081810360008301526131e4816131a8565b9050919050565b7f4552433732313a207472616e736665722066726f6d20696e636f72726563742060008201527f6f776e6572000000000000000000000000000000000000000000000000000000602082015250565b6000613247602583612024565b9150613252826131eb565b604082019050919050565b600060208201905081810360008301526132768161323a565b9050919050565b7f4552433732313a207472616e7366657220746f20746865207a65726f2061646460008201527f7265737300000000000000000000000000000000000000000000000000000000602082015250565b60006132d9602483612024565b91506132e48261327d565b604082019050919050565b60006020820190508181036000830152613308816132cc565b9050919050565b600061331a826120d4565b9150613325836120d4565b92508282101561333857613337612cdc565b5b828203905092915050565b7f4552433732313a20617070726f766520746f2063616c6c657200000000000000600082015250565b6000613379601983612024565b915061338482613343565b602082019050919050565b600060208201905081810360008301526133a88161336c565b9050919050565b7f4552433732313a207472616e7366657220746f206e6f6e20455243373231526560008201527f63656976657220696d706c656d656e7465720000000000000000000000000000602082015250565b600061340b603283612024565b9150613416826133af565b604082019050919050565b6000602082019050818103600083015261343a816133fe565b9050919050565b7f4e487b7100000000000000000000000000000000000000000000000000000000600052601260045260246000fd5b600061347b826120d4565b9150613486836120d4565b92508261349657613495613441565b5b828204905092915050565b60006134ac826120d4565b91506134b7836120d4565b9250826134c7576134c6613441565b5b828206905092915050565b7f4e487b7100000000000000000000000000000000000000000000000000000000600052603260045260246000fd5b600081519050919050565b600082825260208201905092915050565b600061352882613501565b613532818561350c565b9350613542818560208601612035565b61354b81612068565b840191505092915050565b600060808201905061356b6000830187612169565b6135786020830186612169565b61358560408301856121ff565b8181036060830152613597818461351d565b905095945050505050565b6000815190506135b181611fc0565b92915050565b6000602082840312156135cd576135cc611f8a565b5b60006135db848285016135a2565b91505092915050565b7f4552433732313a206d696e7420746f20746865207a65726f2061646472657373600082015250565b600061361a602083612024565b9150613625826135e4565b602082019050919050565b600060208201905081810360008301526136498161360d565b9050919050565b7f4552433732313a20746f6b656e20616c7265616479206d696e74656400000000600082015250565b6000613686601c83612024565b915061369182613650565b602082019050919050565b600060208201905081810360008301526136b581613679565b905091905056fea2646970667358221220062fb52f748af5ab7b0a8c2112de0563a773a70907b365f2b1f1028a01b4a7a364736f6c634300080f0033",
  "immutableReferences": {},
  "source": "// SPDX-License-Identifier: MIT\npragma solidity >=0.4.22 <0.9.0;\n\nimport \"../node_modules/@openzeppelin/contracts/token/ERC721/ERC721.sol\";\nimport \"../node_modules/@openzeppelin/contracts/access/Ownable.sol\";\n\ncontract RoboPunksNFT is ERC721, Ownable {\n    uint256 public mintPrice;\n    uint256 public totalSupply;\n    uint256 public maxSupply;\n    uint256 public maxPreWallet;\n    bool public isPublicMintEnabled;\n    string internal baseTokenUri;\n    address payable public WithdrawWallet;\n    mapping(address => uint256) public walletMints;\n\n    constructor() payable ERC721(\"RoboPunks\", \"RP\") {\n        mintPrice = 10000000000000000; //0.01 BNB\n        totalSupply = 0;\n        maxSupply = 1000;\n        maxPreWallet = 10;\n    }\n\n    function setIsPublicMintEnabled(bool _isPublicMintEnabled)\n        external\n        onlyOwner\n    {\n        isPublicMintEnabled = _isPublicMintEnabled;\n    }\n\n    function setBaseTokenUri(string calldata _baseTokenUri)\n        external\n        onlyOwner\n        returns (bool)\n    {\n        baseTokenUri = _baseTokenUri;\n        return true;\n    }\n\n    function tokenURI(uint256 _tokenId)\n        public\n        view\n        override\n        returns (string memory)\n    {\n        require(_exists(_tokenId), \"Token dose not exist!\");\n        return\n            string(\n                abi.encodePacked(\n                    baseTokenUri,\n                    Strings.toString(_tokenId),\n                    \".json\"\n                )\n            );\n    }\n\n    function withdraw() external onlyOwner {\n        (bool success, ) = WithdrawWallet.call{value: address(this).balance}(\n            \"\"\n        );\n        require(success, \"withdraw failed\");\n    }\n\n    function mint(uint256 _quantity) public payable {\n        require(isPublicMintEnabled, \"minting not enabled\");\n        require(msg.value == _quantity * mintPrice, \"wrong mint value\");\n        require(totalSupply + _quantity <= maxSupply, \"sold out\");\n        require(\n            walletMints[msg.sender] + _quantity <= maxPreWallet,\n            \"exceed max wallet\"\n        );\n        walletMints[msg.sender] = walletMints[msg.sender] + _quantity;\n        for (uint256 i = 0; i < _quantity; i++) {\n            uint256 newTokenId = totalSupply + 1;\n            totalSupply++;\n            _safeMint(msg.sender, newTokenId);\n        }\n    }\n}\n",
  "sourcePath": "C:\\Users\\hamza\\Desktop\\web3-tasks\\8_Mint_Website_Spotify\\contracts\\RoboPunksNFT.sol",
  "compiler": {
    "name": "solc",
    "version": "0.8.15+commit.e14f2714.Emscripten.clang"
  },
  "schemaVersion": "3.4.8",
  "updatedAt": "2022-07-20T18:50:50.182Z",
  "networkType": "ethereum",
  "devdoc": {
    "kind": "dev",
    "methods": {
      "approve(address,uint256)": {
        "details": "See {IERC721-approve}."
      },
      "balanceOf(address)": {
        "details": "See {IERC721-balanceOf}."
      },
      "getApproved(uint256)": {
        "details": "See {IERC721-getApproved}."
      },
      "isApprovedForAll(address,address)": {
        "details": "See {IERC721-isApprovedForAll}."
      },
      "name()": {
        "details": "See {IERC721Metadata-name}."
      },
      "owner()": {
        "details": "Returns the address of the current owner."
      },
      "ownerOf(uint256)": {
        "details": "See {IERC721-ownerOf}."
      },
      "renounceOwnership()": {
        "details": "Leaves the contract without owner. It will not be possible to call `onlyOwner` functions anymore. Can only be called by the current owner. NOTE: Renouncing ownership will leave the contract without an owner, thereby removing any functionality that is only available to the owner."
      },
      "safeTransferFrom(address,address,uint256)": {
        "details": "See {IERC721-safeTransferFrom}."
      },
      "safeTransferFrom(address,address,uint256,bytes)": {
        "details": "See {IERC721-safeTransferFrom}."
      },
      "setApprovalForAll(address,bool)": {
        "details": "See {IERC721-setApprovalForAll}."
      },
      "supportsInterface(bytes4)": {
        "details": "See {IERC165-supportsInterface}."
      },
      "symbol()": {
        "details": "See {IERC721Metadata-symbol}."
      },
      "transferFrom(address,address,uint256)": {
        "details": "See {IERC721-transferFrom}."
      },
      "transferOwnership(address)": {
        "details": "Transfers ownership of the contract to a new account (`newOwner`). Can only be called by the current owner."
      }
    },
    "version": 1
  },
  "userdoc": {
    "kind": "user",
    "methods": {},
    "version": 1
  }
}